{
  "abi": [
    {
      "type": "constructor",
      "inputs": [
        {
          "name": "_tokenAddress",
          "type": "address",
          "internalType": "address"
        },
        {
          "name": "_deadline",
          "type": "uint256",
          "internalType": "uint256"
        }
      ],
      "stateMutability": "nonpayable"
    },
    {
      "type": "function",
      "name": "buy",
      "inputs": [],
      "outputs": [],
      "stateMutability": "payable"
    },
    {
      "type": "function",
      "name": "deadline",
      "inputs": [],
      "outputs": [
        {
          "name": "",
          "type": "uint256",
          "internalType": "uint256"
        }
      ],
      "stateMutability": "view"
    },
    {
      "type": "function",
      "name": "owner",
      "inputs": [],
      "outputs": [
        {
          "name": "",
          "type": "address",
          "internalType": "address"
        }
      ],
      "stateMutability": "view"
    },
    {
      "type": "function",
      "name": "token",
      "inputs": [],
      "outputs": [
        {
          "name": "",
          "type": "address",
          "internalType": "contract IERC20"
        }
      ],
      "stateMutability": "view"
    },
    {
      "type": "function",
      "name": "updateDeadline",
      "inputs": [
        {
          "name": "_deadline",
          "type": "uint256",
          "internalType": "uint256"
        }
      ],
      "outputs": [],
      "stateMutability": "nonpayable"
    },
    {
      "type": "function",
      "name": "withdraw",
      "inputs": [],
      "outputs": [],
      "stateMutability": "nonpayable"
    },
    {
      "type": "function",
      "name": "withdrawToken",
      "inputs": [],
      "outputs": [],
      "stateMutability": "nonpayable"
    }
  ],
  "bytecode": {
    "object": "0x608060405234801561001057600080fd5b506040516105ba3803806105ba83398101604081905261002f91610068565b60008054336001600160a01b031991821617909155600191909155600280549091166001600160a01b03929092169190911790556100a2565b6000806040838503121561007b57600080fd5b82516001600160a01b038116811461009257600080fd5b6020939093015192949293505050565b610509806100b16000396000f3fe6080604052600436106100705760003560e01c80638da5cb5b1161004e5780638da5cb5b146100d5578063a6f2ae3a1461010d578063ca628c7814610115578063fc0c546a1461012a57600080fd5b806329dcb0cf146100755780633ccfd60b1461009e57806342af1884146100b5575b600080fd5b34801561008157600080fd5b5061008b60015481565b6040519081526020015b60405180910390f35b3480156100aa57600080fd5b506100b361014a565b005b3480156100c157600080fd5b506100b36100d036600461044d565b6101ab565b3480156100e157600080fd5b506000546100f5906001600160a01b031681565b6040516001600160a01b039091168152602001610095565b6100b36101c7565b34801561012157600080fd5b506100b36103bd565b34801561013657600080fd5b506002546100f5906001600160a01b031681565b6000546001600160a01b0316331461016157600080fd5b6000471161016e57600080fd5b600080546040516001600160a01b03909116914780156108fc02929091818181858888f193505050501580156101a8573d6000803e3d6000fd5b50565b6000546001600160a01b031633146101c257600080fd5b600155565b6002546040516370a0823160e01b81523060048201526001600160a01b03909116906370a0823190602401602060405180830381865afa15801561020f573d6000803e3d6000fd5b505050506040513d601f19601f820116820180604052508101906102339190610466565b61023f346103e861047f565b11156102925760405162461bcd60e51b815260206004820152601c60248201527f4e6f7420656e6f75676820746f6b656e7320696e2070726573616c650000000060448201526064015b60405180910390fd5b66038d7ea4c680003410156102e95760405162461bcd60e51b815260206004820152601b60248201527f4d696e696d756d20616d6f756e7420697320302e30303120424e4200000000006044820152606401610289565b60015442106103305760405162461bcd60e51b8152602060048201526013602482015272111958591b1a5b99481a185cc81c185cdcd959606a1b6044820152606401610289565b6002546001600160a01b031663a9059cbb3361034e346103e861047f565b6040516001600160e01b031960e085901b1681526001600160a01b03909216600483015260248201526044016020604051808303816000875af1158015610399573d6000803e3d6000fd5b505050506040513d601f19601f820116820180604052508101906101a891906104aa565b6000546001600160a01b031633146103d457600080fd5b6002546000546040516370a0823160e01b81523060048201526001600160a01b039283169263a9059cbb92169083906370a0823190602401602060405180830381865afa158015610429573d6000803e3d6000fd5b505050506040513d601f19601f8201168201806040525081019061034e9190610466565b60006020828403121561045f57600080fd5b5035919050565b60006020828403121561047857600080fd5b5051919050565b80820281158282048414176104a457634e487b7160e01b600052601160045260246000fd5b92915050565b6000602082840312156104bc57600080fd5b815180151581146104cc57600080fd5b939250505056fea2646970667358221220b0c7cf8442afdecceee01c8ceb524ed0fd479b4a9e9e3d320bba416b159ff6ea64736f6c63430008180033",
    "linkReferences": {}
  },
  "methodIdentifiers": {
    "buy()": "a6f2ae3a",
    "deadline()": "29dcb0cf",
    "owner()": "8da5cb5b",
    "token()": "fc0c546a",
    "updateDeadline(uint256)": "42af1884",
    "withdraw()": "3ccfd60b",
    "withdrawToken()": "ca628c78"
  },
  "id": 27
}