{
  "abi": [
    {
      "type": "constructor",
      "inputs": [
        {
          "name": "_tokenAddress",
          "type": "address",
          "internalType": "address"
        },
        {
          "name": "_deadline",
          "type": "uint256",
          "internalType": "uint256"
        }
      ],
      "stateMutability": "nonpayable"
    },
    {
      "type": "function",
      "name": "buy",
      "inputs": [],
      "outputs": [],
      "stateMutability": "payable"
    },
    {
      "type": "function",
      "name": "deadline",
      "inputs": [],
      "outputs": [
        {
          "name": "",
          "type": "uint256",
          "internalType": "uint256"
        }
      ],
      "stateMutability": "view"
    },
    {
      "type": "function",
      "name": "owner",
      "inputs": [],
      "outputs": [
        {
          "name": "",
          "type": "address",
          "internalType": "address"
        }
      ],
      "stateMutability": "view"
    },
    {
      "type": "function",
      "name": "price",
      "inputs": [],
      "outputs": [
        {
          "name": "",
          "type": "uint256",
          "internalType": "uint256"
        }
      ],
      "stateMutability": "view"
    },
    {
      "type": "function",
      "name": "token",
      "inputs": [],
      "outputs": [
        {
          "name": "",
          "type": "address",
          "internalType": "contract IERC20"
        }
      ],
      "stateMutability": "view"
    },
    {
      "type": "function",
      "name": "updateDeadline",
      "inputs": [
        {
          "name": "_deadline",
          "type": "uint256",
          "internalType": "uint256"
        }
      ],
      "outputs": [],
      "stateMutability": "nonpayable"
    },
    {
      "type": "function",
      "name": "updatePrice",
      "inputs": [
        {
          "name": "_price",
          "type": "uint256",
          "internalType": "uint256"
        }
      ],
      "outputs": [],
      "stateMutability": "nonpayable"
    },
    {
      "type": "function",
      "name": "withdraw",
      "inputs": [],
      "outputs": [],
      "stateMutability": "nonpayable"
    },
    {
      "type": "function",
      "name": "withdrawToken",
      "inputs": [],
      "outputs": [],
      "stateMutability": "nonpayable"
    }
  ],
  "bytecode": {
    "object": "0x60806040526213d62060025534801561001757600080fd5b506040516106303803806106308339810160408190526100369161006f565b60008054336001600160a01b031991821617909155600191909155600380549091166001600160a01b03929092169190911790556100a9565b6000806040838503121561008257600080fd5b82516001600160a01b038116811461009957600080fd5b6020939093015192949293505050565b610578806100b86000396000f3fe6080604052600436106100865760003560e01c80638da5cb5b116100595780638da5cb5b1461010b578063a035b1fe14610143578063a6f2ae3a14610159578063ca628c7814610161578063fc0c546a1461017657600080fd5b806329dcb0cf1461008b5780633ccfd60b146100b457806342af1884146100cb5780638d6cc56d146100eb575b600080fd5b34801561009757600080fd5b506100a160015481565b6040519081526020015b60405180910390f35b3480156100c057600080fd5b506100c9610196565b005b3480156100d757600080fd5b506100c96100e63660046104bc565b6101f7565b3480156100f757600080fd5b506100c96101063660046104bc565b610213565b34801561011757600080fd5b5060005461012b906001600160a01b031681565b6040516001600160a01b0390911681526020016100ab565b34801561014f57600080fd5b506100a160025481565b6100c961022f565b34801561016d57600080fd5b506100c961042c565b34801561018257600080fd5b5060035461012b906001600160a01b031681565b6000546001600160a01b031633146101ad57600080fd5b600047116101ba57600080fd5b600080546040516001600160a01b03909116914780156108fc02929091818181858888f193505050501580156101f4573d6000803e3d6000fd5b50565b6000546001600160a01b0316331461020e57600080fd5b600155565b6000546001600160a01b0316331461022a57600080fd5b600255565b6003546040516370a0823160e01b81523060048201526001600160a01b03909116906370a0823190602401602060405180830381865afa158015610277573d6000803e3d6000fd5b505050506040513d601f19601f8201168201806040525081019061029b91906104d5565b6002546102a890346104ee565b11156102fb5760405162461bcd60e51b815260206004820181905260248201527f4e6f7420656e6f75676820746f6b656e7320696e207468652070726573616c6560448201526064015b60405180910390fd5b66038d7ea4c680003410156103525760405162461bcd60e51b815260206004820152601b60248201527f4d696e696d756d20616d6f756e7420697320302e30303120424e42000000000060448201526064016102f2565b60015442106103995760405162461bcd60e51b8152602060048201526013602482015272111958591b1a5b99481a185cc81c185cdcd959606a1b60448201526064016102f2565b6003546002546001600160a01b039091169063a9059cbb9033906103bd90346104ee565b6040516001600160e01b031960e085901b1681526001600160a01b03909216600483015260248201526044016020604051808303816000875af1158015610408573d6000803e3d6000fd5b505050506040513d601f19601f820116820180604052508101906101f49190610519565b6000546001600160a01b0316331461044357600080fd5b6003546000546040516370a0823160e01b81523060048201526001600160a01b039283169263a9059cbb92169083906370a0823190602401602060405180830381865afa158015610498573d6000803e3d6000fd5b505050506040513d601f19601f820116820180604052508101906103bd91906104d5565b6000602082840312156104ce57600080fd5b5035919050565b6000602082840312156104e757600080fd5b5051919050565b808202811582820484141761051357634e487b7160e01b600052601160045260246000fd5b92915050565b60006020828403121561052b57600080fd5b8151801515811461053b57600080fd5b939250505056fea2646970667358221220d48e434bf7558bf6102523c1c2a5fe34a2d66c290f24556281f879ec6253d10064736f6c63430008180033",
    "linkReferences": {}
  },
  "methodIdentifiers": {
    "buy()": "a6f2ae3a",
    "deadline()": "29dcb0cf",
    "owner()": "8da5cb5b",
    "price()": "a035b1fe",
    "token()": "fc0c546a",
    "updateDeadline(uint256)": "42af1884",
    "updatePrice(uint256)": "8d6cc56d",
    "withdraw()": "3ccfd60b",
    "withdrawToken()": "ca628c78"
  },
  "id": 27
}